{
  "_format": "hh-sol-artifact-1",
  "contractName": "testdf",
  "sourceName": "contracts/testd.sol",
  "abi": [
    {
      "inputs": [
        {
          "internalType": "string",
          "name": "name",
          "type": "string"
        },
        {
          "internalType": "string",
          "name": "symbol",
          "type": "string"
        },
        {
          "internalType": "string",
          "name": "_BASE_URI",
          "type": "string"
        },
        {
          "internalType": "address",
          "name": "passContractAddress",
          "type": "address"
        }
      ],
      "stateMutability": "nonpayable",
      "type": "constructor"
    },
    {
      "anonymous": false,
      "inputs": [
        {
          "indexed": true,
          "internalType": "address",
          "name": "owner",
          "type": "address"
        },
        {
          "indexed": true,
          "internalType": "address",
          "name": "approved",
          "type": "address"
        },
        {
          "indexed": true,
          "internalType": "uint256",
          "name": "tokenId",
          "type": "uint256"
        }
      ],
      "name": "Approval",
      "type": "event"
    },
    {
      "anonymous": false,
      "inputs": [
        {
          "indexed": true,
          "internalType": "address",
          "name": "owner",
          "type": "address"
        },
        {
          "indexed": true,
          "internalType": "address",
          "name": "operator",
          "type": "address"
        },
        {
          "indexed": false,
          "internalType": "bool",
          "name": "approved",
          "type": "bool"
        }
      ],
      "name": "ApprovalForAll",
      "type": "event"
    },
    {
      "anonymous": false,
      "inputs": [
        {
          "indexed": true,
          "internalType": "address",
          "name": "previousOwner",
          "type": "address"
        },
        {
          "indexed": true,
          "internalType": "address",
          "name": "newOwner",
          "type": "address"
        }
      ],
      "name": "OwnershipTransferred",
      "type": "event"
    },
    {
      "anonymous": false,
      "inputs": [
        {
          "indexed": true,
          "internalType": "address",
          "name": "from",
          "type": "address"
        },
        {
          "indexed": true,
          "internalType": "address",
          "name": "to",
          "type": "address"
        },
        {
          "indexed": true,
          "internalType": "uint256",
          "name": "tokenId",
          "type": "uint256"
        }
      ],
      "name": "Transfer",
      "type": "event"
    },
    {
      "inputs": [],
      "name": "IS_OG_SALE_ACTIVE",
      "outputs": [
        {
          "internalType": "bool",
          "name": "",
          "type": "bool"
        }
      ],
      "stateMutability": "view",
      "type": "function"
    },
    {
      "inputs": [],
      "name": "IS_PRE_SALE_ACTIVE",
      "outputs": [
        {
          "internalType": "bool",
          "name": "",
          "type": "bool"
        }
      ],
      "stateMutability": "view",
      "type": "function"
    },
    {
      "inputs": [],
      "name": "IS_PUBLIC_SALE_ACTIVE",
      "outputs": [
        {
          "internalType": "bool",
          "name": "",
          "type": "bool"
        }
      ],
      "stateMutability": "view",
      "type": "function"
    },
    {
      "inputs": [],
      "name": "MAX_SUPPLY",
      "outputs": [
        {
          "internalType": "uint256",
          "name": "",
          "type": "uint256"
        }
      ],
      "stateMutability": "view",
      "type": "function"
    },
    {
      "inputs": [
        {
          "internalType": "address",
          "name": "to",
          "type": "address"
        },
        {
          "internalType": "uint256",
          "name": "tokenId",
          "type": "uint256"
        }
      ],
      "name": "approve",
      "outputs": [],
      "stateMutability": "nonpayable",
      "type": "function"
    },
    {
      "inputs": [
        {
          "internalType": "address",
          "name": "owner",
          "type": "address"
        }
      ],
      "name": "balanceOf",
      "outputs": [
        {
          "internalType": "uint256",
          "name": "",
          "type": "uint256"
        }
      ],
      "stateMutability": "view",
      "type": "function"
    },
    {
      "inputs": [
        {
          "internalType": "uint256",
          "name": "tokenId",
          "type": "uint256"
        }
      ],
      "name": "getApproved",
      "outputs": [
        {
          "internalType": "address",
          "name": "",
          "type": "address"
        }
      ],
      "stateMutability": "view",
      "type": "function"
    },
    {
      "inputs": [
        {
          "internalType": "address",
          "name": "owner",
          "type": "address"
        },
        {
          "internalType": "address",
          "name": "operator",
          "type": "address"
        }
      ],
      "name": "isApprovedForAll",
      "outputs": [
        {
          "internalType": "bool",
          "name": "",
          "type": "bool"
        }
      ],
      "stateMutability": "view",
      "type": "function"
    },
    {
      "inputs": [],
      "name": "name",
      "outputs": [
        {
          "internalType": "string",
          "name": "",
          "type": "string"
        }
      ],
      "stateMutability": "view",
      "type": "function"
    },
    {
      "inputs": [
        {
          "internalType": "uint256",
          "name": "quantity",
          "type": "uint256"
        }
      ],
      "name": "ogSale",
      "outputs": [],
      "stateMutability": "payable",
      "type": "function"
    },
    {
      "inputs": [],
      "name": "owner",
      "outputs": [
        {
          "internalType": "address",
          "name": "",
          "type": "address"
        }
      ],
      "stateMutability": "view",
      "type": "function"
    },
    {
      "inputs": [
        {
          "internalType": "uint256",
          "name": "numberOfTokens",
          "type": "uint256"
        }
      ],
      "name": "ownerMint",
      "outputs": [],
      "stateMutability": "nonpayable",
      "type": "function"
    },
    {
      "inputs": [
        {
          "internalType": "uint256",
          "name": "tokenId",
          "type": "uint256"
        }
      ],
      "name": "ownerOf",
      "outputs": [
        {
          "internalType": "address",
          "name": "",
          "type": "address"
        }
      ],
      "stateMutability": "view",
      "type": "function"
    },
    {
      "inputs": [
        {
          "internalType": "uint256",
          "name": "quantity",
          "type": "uint256"
        }
      ],
      "name": "preSale",
      "outputs": [],
      "stateMutability": "payable",
      "type": "function"
    },
    {
      "inputs": [
        {
          "internalType": "uint256",
          "name": "quantity",
          "type": "uint256"
        }
      ],
      "name": "publicSale",
      "outputs": [],
      "stateMutability": "payable",
      "type": "function"
    },
    {
      "inputs": [],
      "name": "renounceOwnership",
      "outputs": [],
      "stateMutability": "nonpayable",
      "type": "function"
    },
    {
      "inputs": [
        {
          "internalType": "address",
          "name": "from",
          "type": "address"
        },
        {
          "internalType": "address",
          "name": "to",
          "type": "address"
        },
        {
          "internalType": "uint256",
          "name": "tokenId",
          "type": "uint256"
        }
      ],
      "name": "safeTransferFrom",
      "outputs": [],
      "stateMutability": "nonpayable",
      "type": "function"
    },
    {
      "inputs": [
        {
          "internalType": "address",
          "name": "from",
          "type": "address"
        },
        {
          "internalType": "address",
          "name": "to",
          "type": "address"
        },
        {
          "internalType": "uint256",
          "name": "tokenId",
          "type": "uint256"
        },
        {
          "internalType": "bytes",
          "name": "_data",
          "type": "bytes"
        }
      ],
      "name": "safeTransferFrom",
      "outputs": [],
      "stateMutability": "nonpayable",
      "type": "function"
    },
    {
      "inputs": [
        {
          "internalType": "address",
          "name": "operator",
          "type": "address"
        },
        {
          "internalType": "bool",
          "name": "approved",
          "type": "bool"
        }
      ],
      "name": "setApprovalForAll",
      "outputs": [],
      "stateMutability": "nonpayable",
      "type": "function"
    },
    {
      "inputs": [
        {
          "internalType": "string",
          "name": "newUri",
          "type": "string"
        }
      ],
      "name": "setBaseURI",
      "outputs": [],
      "stateMutability": "nonpayable",
      "type": "function"
    },
    {
      "inputs": [
        {
          "internalType": "address",
          "name": "_contractAddress",
          "type": "address"
        }
      ],
      "name": "setPassContractAddress",
      "outputs": [],
      "stateMutability": "nonpayable",
      "type": "function"
    },
    {
      "inputs": [
        {
          "internalType": "bytes4",
          "name": "interfaceId",
          "type": "bytes4"
        }
      ],
      "name": "supportsInterface",
      "outputs": [
        {
          "internalType": "bool",
          "name": "",
          "type": "bool"
        }
      ],
      "stateMutability": "view",
      "type": "function"
    },
    {
      "inputs": [],
      "name": "symbol",
      "outputs": [
        {
          "internalType": "string",
          "name": "",
          "type": "string"
        }
      ],
      "stateMutability": "view",
      "type": "function"
    },
    {
      "inputs": [],
      "name": "toggleOGSale",
      "outputs": [],
      "stateMutability": "nonpayable",
      "type": "function"
    },
    {
      "inputs": [],
      "name": "togglePreSale",
      "outputs": [],
      "stateMutability": "nonpayable",
      "type": "function"
    },
    {
      "inputs": [],
      "name": "togglePublicSale",
      "outputs": [],
      "stateMutability": "nonpayable",
      "type": "function"
    },
    {
      "inputs": [
        {
          "internalType": "uint256",
          "name": "tokenId",
          "type": "uint256"
        }
      ],
      "name": "tokenURI",
      "outputs": [
        {
          "internalType": "string",
          "name": "",
          "type": "string"
        }
      ],
      "stateMutability": "view",
      "type": "function"
    },
    {
      "inputs": [],
      "name": "totalSupply",
      "outputs": [
        {
          "internalType": "uint256",
          "name": "",
          "type": "uint256"
        }
      ],
      "stateMutability": "view",
      "type": "function"
    },
    {
      "inputs": [
        {
          "internalType": "address",
          "name": "from",
          "type": "address"
        },
        {
          "internalType": "address",
          "name": "to",
          "type": "address"
        },
        {
          "internalType": "uint256",
          "name": "tokenId",
          "type": "uint256"
        }
      ],
      "name": "transferFrom",
      "outputs": [],
      "stateMutability": "nonpayable",
      "type": "function"
    },
    {
      "inputs": [
        {
          "internalType": "address",
          "name": "newOwner",
          "type": "address"
        }
      ],
      "name": "transferOwnership",
      "outputs": [],
      "stateMutability": "nonpayable",
      "type": "function"
    },
    {
      "inputs": [],
      "name": "withdrawFunds",
      "outputs": [],
      "stateMutability": "nonpayable",
      "type": "function"
    }
  ],
  "bytecode": "0x6080604052670de0b6b3a7640000600955671158e460913d0000600a556714d1120d7b160000600b556000600c60006101000a81548160ff0219169083151502179055506000600c60016101000a81548160ff0219169083151502179055506000600c60026101000a81548160ff0219169083151502179055503480156200008657600080fd5b5060405162004e4538038062004e458339818101604052810190620000ac91906200039a565b83838160009080519060200190620000c692919062000261565b508060019080519060200190620000df92919062000261565b50505062000102620000f66200017d60201b60201c565b6200018560201b60201c565b80600e60006101000a81548173ffffffffffffffffffffffffffffffffffffffff021916908373ffffffffffffffffffffffffffffffffffffffff16021790555081600890805190602001906200015b92919062000261565b506200017360076200024b60201b620020af1760201c565b505050506200060f565b600033905090565b6000600660009054906101000a900473ffffffffffffffffffffffffffffffffffffffff16905081600660006101000a81548173ffffffffffffffffffffffffffffffffffffffff021916908373ffffffffffffffffffffffffffffffffffffffff1602179055508173ffffffffffffffffffffffffffffffffffffffff168173ffffffffffffffffffffffffffffffffffffffff167f8be0079c531659141344cd1fd0a4f28419497f9722a3daafe3b4186f6b6457e060405160405180910390a35050565b6001816000016000828254019250508190555050565b8280546200026f906200051a565b90600052602060002090601f016020900481019282620002935760008555620002df565b82601f10620002ae57805160ff1916838001178555620002df565b82800160010185558215620002df579182015b82811115620002de578251825591602001919060010190620002c1565b5b509050620002ee9190620002f2565b5090565b5b808211156200030d576000816000905550600101620002f3565b5090565b60006200032862000322846200047a565b62000451565b9050828152602081018484840111156200034157600080fd5b6200034e848285620004e4565b509392505050565b6000815190506200036781620005f5565b92915050565b600082601f8301126200037f57600080fd5b81516200039184826020860162000311565b91505092915050565b60008060008060808587031215620003b157600080fd5b600085015167ffffffffffffffff811115620003cc57600080fd5b620003da878288016200036d565b945050602085015167ffffffffffffffff811115620003f857600080fd5b62000406878288016200036d565b935050604085015167ffffffffffffffff8111156200042457600080fd5b62000432878288016200036d565b9250506060620004458782880162000356565b91505092959194509250565b60006200045d62000470565b90506200046b828262000550565b919050565b6000604051905090565b600067ffffffffffffffff821115620004985762000497620005b5565b5b620004a382620005e4565b9050602081019050919050565b6000620004bd82620004c4565b9050919050565b600073ffffffffffffffffffffffffffffffffffffffff82169050919050565b60005b8381101562000504578082015181840152602081019050620004e7565b8381111562000514576000848401525b50505050565b600060028204905060018216806200053357607f821691505b602082108114156200054a576200054962000586565b5b50919050565b6200055b82620005e4565b810181811067ffffffffffffffff821117156200057d576200057c620005b5565b5b80604052505050565b7f4e487b7100000000000000000000000000000000000000000000000000000000600052602260045260246000fd5b7f4e487b7100000000000000000000000000000000000000000000000000000000600052604160045260246000fd5b6000601f19601f8301169050919050565b6200060081620004b0565b81146200060c57600080fd5b50565b614826806200061f6000396000f3fe6080604052600436106101d85760003560e01c8063715018a611610102578063bb20b54311610095578063e94d75f311610064578063e94d75f314610621578063e985e9c51461064c578063f19e75d414610689578063f2fde38b146106b2576101d8565b8063bb20b5431461058b578063c87b56dd146105b6578063ca3cb522146105f3578063e222c7f91461060a576101d8565b806399800185116100d15780639980018514610506578063a22cb4651461051d578063b287c8ed14610546578063b88d4fde14610562576101d8565b8063715018a61461046e5780638da5cb5b146104855780638e70d274146104b057806395d89b41146104db576101d8565b806323b872dd1161017a57806355f804b31161014957806355f804b3146103af5780636352211e146103d857806367418fc21461041557806370a0823114610431576101d8565b806323b872dd1461031b57806324600fc31461034457806332cb6b0c1461035b57806342842e0e14610386576101d8565b8063095ea7b3116101b6578063095ea7b3146102825780630c153b49146102ab578063131f4104146102d457806318160ddd146102f0576101d8565b806301ffc9a7146101dd57806306fdde031461021a578063081812fc14610245575b600080fd5b3480156101e957600080fd5b5061020460048036038101906101ff9190613388565b6106db565b604051610211919061392d565b60405180910390f35b34801561022657600080fd5b5061022f6107bd565b60405161023c9190613948565b60405180910390f35b34801561025157600080fd5b5061026c6004803603810190610267919061341b565b61084f565b60405161027991906138c6565b60405180910390f35b34801561028e57600080fd5b506102a960048036038101906102a491906132e2565b6108d4565b005b3480156102b757600080fd5b506102d260048036038101906102cd9190613177565b6109ec565b005b6102ee60048036038101906102e9919061341b565b610aac565b005b3480156102fc57600080fd5b50610305610f7b565b6040516103129190613caa565b60405180910390f35b34801561032757600080fd5b50610342600480360381019061033d91906131dc565b610f98565b005b34801561035057600080fd5b50610359610ff8565b005b34801561036757600080fd5b506103706110bd565b60405161037d9190613caa565b60405180910390f35b34801561039257600080fd5b506103ad60048036038101906103a891906131dc565b6110c3565b005b3480156103bb57600080fd5b506103d660048036038101906103d191906133da565b6110e3565b005b3480156103e457600080fd5b506103ff60048036038101906103fa919061341b565b611179565b60405161040c91906138c6565b60405180910390f35b61042f600480360381019061042a919061341b565b61122b565b005b34801561043d57600080fd5b5061045860048036038101906104539190613177565b6116fb565b6040516104659190613caa565b60405180910390f35b34801561047a57600080fd5b506104836117b3565b005b34801561049157600080fd5b5061049a61183b565b6040516104a791906138c6565b60405180910390f35b3480156104bc57600080fd5b506104c5611865565b6040516104d2919061392d565b60405180910390f35b3480156104e757600080fd5b506104f0611878565b6040516104fd9190613948565b60405180910390f35b34801561051257600080fd5b5061051b61190a565b005b34801561052957600080fd5b50610544600480360381019061053f91906132a6565b6119b2565b005b610560600480360381019061055b919061341b565b6119c8565b005b34801561056e57600080fd5b506105896004803603810190610584919061322b565b611ba0565b005b34801561059757600080fd5b506105a0611c02565b6040516105ad919061392d565b60405180910390f35b3480156105c257600080fd5b506105dd60048036038101906105d8919061341b565b611c15565b6040516105ea9190613948565b60405180910390f35b3480156105ff57600080fd5b50610608611cbc565b005b34801561061657600080fd5b5061061f611d64565b005b34801561062d57600080fd5b50610636611e0c565b604051610643919061392d565b60405180910390f35b34801561065857600080fd5b50610673600480360381019061066e91906131a0565b611e1f565b604051610680919061392d565b60405180910390f35b34801561069557600080fd5b506106b060048036038101906106ab919061341b565b611eb3565b005b3480156106be57600080fd5b506106d960048036038101906106d49190613177565b611fb7565b005b60007f80ac58cd000000000000000000000000000000000000000000000000000000007bffffffffffffffffffffffffffffffffffffffffffffffffffffffff1916827bffffffffffffffffffffffffffffffffffffffffffffffffffffffff191614806107a657507f5b5e139f000000000000000000000000000000000000000000000000000000007bffffffffffffffffffffffffffffffffffffffffffffffffffffffff1916827bffffffffffffffffffffffffffffffffffffffffffffffffffffffff1916145b806107b657506107b5826120c5565b5b9050919050565b6060600080546107cc90613fce565b80601f01602080910402602001604051908101604052809291908181526020018280546107f890613fce565b80156108455780601f1061081a57610100808354040283529160200191610845565b820191906000526020600020905b81548152906001019060200180831161082857829003601f168201915b5050505050905090565b600061085a8261212f565b610899576040517f08c379a000000000000000000000000000000000000000000000000000000000815260040161089090613bca565b60405180910390fd5b6004600083815260200190815260200160002060009054906101000a900473ffffffffffffffffffffffffffffffffffffffff169050919050565b60006108df82611179565b90508073ffffffffffffffffffffffffffffffffffffffff168373ffffffffffffffffffffffffffffffffffffffff161415610950576040517f08c379a000000000000000000000000000000000000000000000000000000000815260040161094790613c4a565b60405180910390fd5b8073ffffffffffffffffffffffffffffffffffffffff1661096f61219b565b73ffffffffffffffffffffffffffffffffffffffff16148061099e575061099d8161099861219b565b611e1f565b5b6109dd576040517f08c379a00000000000000000000000000000000000000000000000000000000081526004016109d490613b2a565b60405180910390fd5b6109e783836121a3565b505050565b6109f461219b565b73ffffffffffffffffffffffffffffffffffffffff16610a1261183b565b73ffffffffffffffffffffffffffffffffffffffff1614610a68576040517f08c379a0000000000000000000000000000000000000000000000000000000008152600401610a5f90613c0a565b60405180910390fd5b80600e60006101000a81548173ffffffffffffffffffffffffffffffffffffffff021916908373ffffffffffffffffffffffffffffffffffffffff16021790555050565b3273ffffffffffffffffffffffffffffffffffffffff163373ffffffffffffffffffffffffffffffffffffffff1614610b1a576040517f08c379a0000000000000000000000000000000000000000000000000000000008152600401610b1190613c6a565b60405180910390fd5b600c60019054906101000a900460ff16610b69576040517f08c379a0000000000000000000000000000000000000000000000000000000008152600401610b6090613bea565b60405180910390fd5b6000610b75600761225c565b905061270f8282610b869190613dbb565b10610bc6576040517f08c379a0000000000000000000000000000000000000000000000000000000008152600401610bbd90613aea565b60405180910390fd5b610bd282600a5461226a565b341015610c14576040517f08c379a0000000000000000000000000000000000000000000000000000000008152600401610c0b9061398a565b60405180910390fd5b600080600e60009054906101000a900473ffffffffffffffffffffffffffffffffffffffff1673ffffffffffffffffffffffffffffffffffffffff16638462151c336040518263ffffffff1660e01b8152600401610c7291906138c6565b60006040518083038186803b158015610c8a57600080fd5b505afa158015610c9e573d6000803e3d6000fd5b505050506040513d6000823e3d601f19601f82011682018060405250810190610cc7919061331e565b905060005b8151811015610eb557600e60009054906101000a900473ffffffffffffffffffffffffffffffffffffffff1673ffffffffffffffffffffffffffffffffffffffff16634878f78f838381518110610d4c577f4e487b7100000000000000000000000000000000000000000000000000000000600052603260045260246000fd5b60200260200101516040518263ffffffff1660e01b8152600401610d709190613caa565b602060405180830381600087803b158015610d8a57600080fd5b505af1158015610d9e573d6000803e3d6000fd5b505050506040513d601f19601f82011682018060405250810190610dc2919061335f565b610ea257600e60009054906101000a900473ffffffffffffffffffffffffffffffffffffffff1673ffffffffffffffffffffffffffffffffffffffff166342966c68838381518110610e3d577f4e487b7100000000000000000000000000000000000000000000000000000000600052603260045260246000fd5b60200260200101516040518263ffffffff1660e01b8152600401610e619190613caa565b600060405180830381600087803b158015610e7b57600080fd5b505af1158015610e8f573d6000803e3d6000fd5b505050508280610e9e9061407a565b9350505b8080610ead90614031565b915050610ccc565b5060008260ff1611610efc576040517f08c379a0000000000000000000000000000000000000000000000000000000008152600401610ef390613aaa565b60405180910390fd5b83600583610f0a9190613e9c565b60ff161015610f4e576040517f08c379a0000000000000000000000000000000000000000000000000000000008152600401610f4590613b8a565b60405180910390fd5b60005b84811015610f7457610f616122b0565b8080610f6c90614031565b915050610f51565b5050505050565b60006001610f89600761225c565b610f939190613ed7565b905090565b610fa9610fa361219b565b8261232a565b610fe8576040517f08c379a0000000000000000000000000000000000000000000000000000000008152600401610fdf90613c8a565b60405180910390fd5b610ff3838383612408565b505050565b61100061219b565b73ffffffffffffffffffffffffffffffffffffffff1661101e61183b565b73ffffffffffffffffffffffffffffffffffffffff1614611074576040517f08c379a000000000000000000000000000000000000000000000000000000000815260040161106b90613c0a565b60405180910390fd5b3373ffffffffffffffffffffffffffffffffffffffff166108fc479081150290604051600060405180830381858888f193505050501580156110ba573d6000803e3d6000fd5b50565b61270f81565b6110de83838360405180602001604052806000815250611ba0565b505050565b6110eb61219b565b73ffffffffffffffffffffffffffffffffffffffff1661110961183b565b73ffffffffffffffffffffffffffffffffffffffff161461115f576040517f08c379a000000000000000000000000000000000000000000000000000000000815260040161115690613c0a565b60405180910390fd5b8060089080519060200190611175929190612edb565b5050565b6000806002600084815260200190815260200160002060009054906101000a900473ffffffffffffffffffffffffffffffffffffffff169050600073ffffffffffffffffffffffffffffffffffffffff168173ffffffffffffffffffffffffffffffffffffffff161415611222576040517f08c379a000000000000000000000000000000000000000000000000000000000815260040161121990613b6a565b60405180910390fd5b80915050919050565b3273ffffffffffffffffffffffffffffffffffffffff163373ffffffffffffffffffffffffffffffffffffffff1614611299576040517f08c379a000000000000000000000000000000000000000000000000000000000815260040161129090613c6a565b60405180910390fd5b600c60009054906101000a900460ff166112e8576040517f08c379a00000000000000000000000000000000000000000000000000000000081526004016112df90613a4a565b60405180910390fd5b60006112f4600761225c565b905061270f82826113059190613dbb565b10611345576040517f08c379a000000000000000000000000000000000000000000000000000000000815260040161133c90613aea565b60405180910390fd5b6113518260095461226a565b341015611393576040517f08c379a000000000000000000000000000000000000000000000000000000000815260040161138a9061398a565b60405180910390fd5b600080600e60009054906101000a900473ffffffffffffffffffffffffffffffffffffffff1673ffffffffffffffffffffffffffffffffffffffff16638462151c336040518263ffffffff1660e01b81526004016113f191906138c6565b60006040518083038186803b15801561140957600080fd5b505afa15801561141d573d6000803e3d6000fd5b505050506040513d6000823e3d601f19601f82011682018060405250810190611446919061331e565b905060005b815181101561163557600e60009054906101000a900473ffffffffffffffffffffffffffffffffffffffff1673ffffffffffffffffffffffffffffffffffffffff16634878f78f8383815181106114cb577f4e487b7100000000000000000000000000000000000000000000000000000000600052603260045260246000fd5b60200260200101516040518263ffffffff1660e01b81526004016114ef9190613caa565b602060405180830381600087803b15801561150957600080fd5b505af115801561151d573d6000803e3d6000fd5b505050506040513d601f19601f82011682018060405250810190611541919061335f565b1561162257600e60009054906101000a900473ffffffffffffffffffffffffffffffffffffffff1673ffffffffffffffffffffffffffffffffffffffff166342966c688383815181106115bd577f4e487b7100000000000000000000000000000000000000000000000000000000600052603260045260246000fd5b60200260200101516040518263ffffffff1660e01b81526004016115e19190613caa565b600060405180830381600087803b1580156115fb57600080fd5b505af115801561160f573d6000803e3d6000fd5b50505050828061161e9061407a565b9350505b808061162d90614031565b91505061144b565b5060008260ff161161167c576040517f08c379a00000000000000000000000000000000000000000000000000000000081526004016116739061396a565b60405180910390fd5b8360058361168a9190613e9c565b60ff1610156116ce576040517f08c379a00000000000000000000000000000000000000000000000000000000081526004016116c590613b8a565b60405180910390fd5b60005b848110156116f4576116e16122b0565b80806116ec90614031565b9150506116d1565b5050505050565b60008073ffffffffffffffffffffffffffffffffffffffff168273ffffffffffffffffffffffffffffffffffffffff16141561176c576040517f08c379a000000000000000000000000000000000000000000000000000000000815260040161176390613b4a565b60405180910390fd5b600360008373ffffffffffffffffffffffffffffffffffffffff1673ffffffffffffffffffffffffffffffffffffffff168152602001908152602001600020549050919050565b6117bb61219b565b73ffffffffffffffffffffffffffffffffffffffff166117d961183b565b73ffffffffffffffffffffffffffffffffffffffff161461182f576040517f08c379a000000000000000000000000000000000000000000000000000000000815260040161182690613c0a565b60405180910390fd5b611839600061266f565b565b6000600660009054906101000a900473ffffffffffffffffffffffffffffffffffffffff16905090565b600c60019054906101000a900460ff1681565b60606001805461188790613fce565b80601f01602080910402602001604051908101604052809291908181526020018280546118b390613fce565b80156119005780601f106118d557610100808354040283529160200191611900565b820191906000526020600020905b8154815290600101906020018083116118e357829003601f168201915b5050505050905090565b61191261219b565b73ffffffffffffffffffffffffffffffffffffffff1661193061183b565b73ffffffffffffffffffffffffffffffffffffffff1614611986576040517f08c379a000000000000000000000000000000000000000000000000000000000815260040161197d90613c0a565b60405180910390fd5b600c60009054906101000a900460ff1615600c60006101000a81548160ff021916908315150217905550565b6119c46119bd61219b565b8383612735565b5050565b3273ffffffffffffffffffffffffffffffffffffffff163373ffffffffffffffffffffffffffffffffffffffff1614611a36576040517f08c379a0000000000000000000000000000000000000000000000000000000008152600401611a2d90613c6a565b60405180910390fd5b600c60029054906101000a900460ff16611a85576040517f08c379a0000000000000000000000000000000000000000000000000000000008152600401611a7c90613aca565b60405180910390fd5b6000611a91600761225c565b905061270f8282611aa29190613dbb565b10611ae2576040517f08c379a0000000000000000000000000000000000000000000000000000000008152600401611ad990613aea565b60405180910390fd5b600a8210611b25576040517f08c379a0000000000000000000000000000000000000000000000000000000008152600401611b1c90613a2a565b60405180910390fd5b81600b54611b339190613e42565b341015611b75576040517f08c379a0000000000000000000000000000000000000000000000000000000008152600401611b6c9061398a565b60405180910390fd5b60005b82811015611b9b57611b886122b0565b8080611b9390614031565b915050611b78565b505050565b611bb1611bab61219b565b8361232a565b611bf0576040517f08c379a0000000000000000000000000000000000000000000000000000000008152600401611be790613c8a565b60405180910390fd5b611bfc848484846128a2565b50505050565b600c60009054906101000a900460ff1681565b6060611c208261212f565b611c5f576040517f08c379a0000000000000000000000000000000000000000000000000000000008152600401611c5690613c2a565b60405180910390fd5b6000611c696128fe565b90506000815111611c895760405180602001604052806000815250611cb4565b80611c9384612990565b604051602001611ca49291906138a2565b6040516020818303038152906040525b915050919050565b611cc461219b565b73ffffffffffffffffffffffffffffffffffffffff16611ce261183b565b73ffffffffffffffffffffffffffffffffffffffff1614611d38576040517f08c379a0000000000000000000000000000000000000000000000000000000008152600401611d2f90613c0a565b60405180910390fd5b600c60019054906101000a900460ff1615600c60016101000a81548160ff021916908315150217905550565b611d6c61219b565b73ffffffffffffffffffffffffffffffffffffffff16611d8a61183b565b73ffffffffffffffffffffffffffffffffffffffff1614611de0576040517f08c379a0000000000000000000000000000000000000000000000000000000008152600401611dd790613c0a565b60405180910390fd5b600c60029054906101000a900460ff1615600c60026101000a81548160ff021916908315150217905550565b600c60029054906101000a900460ff1681565b6000600560008473ffffffffffffffffffffffffffffffffffffffff1673ffffffffffffffffffffffffffffffffffffffff16815260200190815260200160002060008373ffffffffffffffffffffffffffffffffffffffff1673ffffffffffffffffffffffffffffffffffffffff16815260200190815260200160002060009054906101000a900460ff16905092915050565b611ebb61219b565b73ffffffffffffffffffffffffffffffffffffffff16611ed961183b565b73ffffffffffffffffffffffffffffffffffffffff1614611f2f576040517f08c379a0000000000000000000000000000000000000000000000000000000008152600401611f2690613c0a565b60405180910390fd5b6000611f3b600761225c565b905061270f8282611f4c9190613dbb565b10611f8c576040517f08c379a0000000000000000000000000000000000000000000000000000000008152600401611f8390613aea565b60405180910390fd5b60005b82811015611fb257611f9f6122b0565b8080611faa90614031565b915050611f8f565b505050565b611fbf61219b565b73ffffffffffffffffffffffffffffffffffffffff16611fdd61183b565b73ffffffffffffffffffffffffffffffffffffffff1614612033576040517f08c379a000000000000000000000000000000000000000000000000000000000815260040161202a90613c0a565b60405180910390fd5b600073ffffffffffffffffffffffffffffffffffffffff168173ffffffffffffffffffffffffffffffffffffffff1614156120a3576040517f08c379a000000000000000000000000000000000000000000000000000000000815260040161209a906139ca565b60405180910390fd5b6120ac8161266f565b50565b6001816000016000828254019250508190555050565b60007f01ffc9a7000000000000000000000000000000000000000000000000000000007bffffffffffffffffffffffffffffffffffffffffffffffffffffffff1916827bffffffffffffffffffffffffffffffffffffffffffffffffffffffff1916149050919050565b60008073ffffffffffffffffffffffffffffffffffffffff166002600084815260200190815260200160002060009054906101000a900473ffffffffffffffffffffffffffffffffffffffff1673ffffffffffffffffffffffffffffffffffffffff1614159050919050565b600033905090565b816004600083815260200190815260200160002060006101000a81548173ffffffffffffffffffffffffffffffffffffffff021916908373ffffffffffffffffffffffffffffffffffffffff160217905550808273ffffffffffffffffffffffffffffffffffffffff1661221683611179565b73ffffffffffffffffffffffffffffffffffffffff167f8c5be1e5ebec7d5bd14f71427d1e84f3dd0314c0f7b2291e5b200ac8c7c3b92560405160405180910390a45050565b600081600001549050919050565b6000600183111561229b57826703782dace9d900008361228a9190613ed7565b6122949190613e42565b90506122aa565b81836122a79190613e42565b90505b92915050565b60006122bc600761225c565b90506122c860076120af565b600d60003373ffffffffffffffffffffffffffffffffffffffff1673ffffffffffffffffffffffffffffffffffffffff168152602001908152602001600020600081548092919061231890614031565b91905055506123273382612b3d565b50565b60006123358261212f565b612374576040517f08c379a000000000000000000000000000000000000000000000000000000000815260040161236b90613b0a565b60405180910390fd5b600061237f83611179565b90508073ffffffffffffffffffffffffffffffffffffffff168473ffffffffffffffffffffffffffffffffffffffff1614806123ee57508373ffffffffffffffffffffffffffffffffffffffff166123d68461084f565b73ffffffffffffffffffffffffffffffffffffffff16145b806123ff57506123fe8185611e1f565b5b91505092915050565b8273ffffffffffffffffffffffffffffffffffffffff1661242882611179565b73ffffffffffffffffffffffffffffffffffffffff161461247e576040517f08c379a0000000000000000000000000000000000000000000000000000000008152600401612475906139ea565b60405180910390fd5b600073ffffffffffffffffffffffffffffffffffffffff168273ffffffffffffffffffffffffffffffffffffffff1614156124ee576040517f08c379a00000000000000000000000000000000000000000000000000000000081526004016124e590613a6a565b60405180910390fd5b6124f9838383612d17565b6125046000826121a3565b6001600360008573ffffffffffffffffffffffffffffffffffffffff1673ffffffffffffffffffffffffffffffffffffffff16815260200190815260200160002060008282546125549190613ed7565b925050819055506001600360008473ffffffffffffffffffffffffffffffffffffffff1673ffffffffffffffffffffffffffffffffffffffff16815260200190815260200160002060008282546125ab9190613dbb565b92505081905550816002600083815260200190815260200160002060006101000a81548173ffffffffffffffffffffffffffffffffffffffff021916908373ffffffffffffffffffffffffffffffffffffffff160217905550808273ffffffffffffffffffffffffffffffffffffffff168473ffffffffffffffffffffffffffffffffffffffff167fddf252ad1be2c89b69c2b068fc378daa952ba7f163c4a11628f55a4df523b3ef60405160405180910390a461266a838383612d1c565b505050565b6000600660009054906101000a900473ffffffffffffffffffffffffffffffffffffffff16905081600660006101000a81548173ffffffffffffffffffffffffffffffffffffffff021916908373ffffffffffffffffffffffffffffffffffffffff1602179055508173ffffffffffffffffffffffffffffffffffffffff168173ffffffffffffffffffffffffffffffffffffffff167f8be0079c531659141344cd1fd0a4f28419497f9722a3daafe3b4186f6b6457e060405160405180910390a35050565b8173ffffffffffffffffffffffffffffffffffffffff168373ffffffffffffffffffffffffffffffffffffffff1614156127a4576040517f08c379a000000000000000000000000000000000000000000000000000000000815260040161279b90613a8a565b60405180910390fd5b80600560008573ffffffffffffffffffffffffffffffffffffffff1673ffffffffffffffffffffffffffffffffffffffff16815260200190815260200160002060008473ffffffffffffffffffffffffffffffffffffffff1673ffffffffffffffffffffffffffffffffffffffff16815260200190815260200160002060006101000a81548160ff0219169083151502179055508173ffffffffffffffffffffffffffffffffffffffff168373ffffffffffffffffffffffffffffffffffffffff167f17307eab39ab6107e8899845ad3d59bd9653f200f220920489ca2b5937696c3183604051612895919061392d565b60405180910390a3505050565b6128ad848484612408565b6128b984848484612d21565b6128f8576040517f08c379a00000000000000000000000000000000000000000000000000000000081526004016128ef906139aa565b60405180910390fd5b50505050565b60606008805461290d90613fce565b80601f016020809104026020016040519081016040528092919081815260200182805461293990613fce565b80156129865780601f1061295b57610100808354040283529160200191612986565b820191906000526020600020905b81548152906001019060200180831161296957829003601f168201915b5050505050905090565b606060008214156129d8576040518060400160405280600181526020017f30000000000000000000000000000000000000000000000000000000000000008152509050612b38565b600082905060005b60008214612a0a5780806129f390614031565b915050600a82612a039190613e11565b91506129e0565b60008167ffffffffffffffff811115612a4c577f4e487b7100000000000000000000000000000000000000000000000000000000600052604160045260246000fd5b6040519080825280601f01601f191660200182016040528015612a7e5781602001600182028036833780820191505090505b5090505b60008514612b3157600182612a979190613ed7565b9150600a85612aa691906140a4565b6030612ab29190613dbb565b60f81b818381518110612aee577f4e487b7100000000000000000000000000000000000000000000000000000000600052603260045260246000fd5b60200101907effffffffffffffffffffffffffffffffffffffffffffffffffffffffffffff1916908160001a905350600a85612b2a9190613e11565b9450612a82565b8093505050505b919050565b600073ffffffffffffffffffffffffffffffffffffffff168273ffffffffffffffffffffffffffffffffffffffff161415612bad576040517f08c379a0000000000000000000000000000000000000000000000000000000008152600401612ba490613baa565b60405180910390fd5b612bb68161212f565b15612bf6576040517f08c379a0000000000000000000000000000000000000000000000000000000008152600401612bed90613a0a565b60405180910390fd5b612c0260008383612d17565b6001600360008473ffffffffffffffffffffffffffffffffffffffff1673ffffffffffffffffffffffffffffffffffffffff1681526020019081526020016000206000828254612c529190613dbb565b92505081905550816002600083815260200190815260200160002060006101000a81548173ffffffffffffffffffffffffffffffffffffffff021916908373ffffffffffffffffffffffffffffffffffffffff160217905550808273ffffffffffffffffffffffffffffffffffffffff16600073ffffffffffffffffffffffffffffffffffffffff167fddf252ad1be2c89b69c2b068fc378daa952ba7f163c4a11628f55a4df523b3ef60405160405180910390a4612d1360008383612d1c565b5050565b505050565b505050565b6000612d428473ffffffffffffffffffffffffffffffffffffffff16612eb8565b15612eab578373ffffffffffffffffffffffffffffffffffffffff1663150b7a02612d6b61219b565b8786866040518563ffffffff1660e01b8152600401612d8d94939291906138e1565b602060405180830381600087803b158015612da757600080fd5b505af1925050508015612dd857506040513d601f19601f82011682018060405250810190612dd591906133b1565b60015b612e5b573d8060008114612e08576040519150601f19603f3d011682016040523d82523d6000602084013e612e0d565b606091505b50600081511415612e53576040517f08c379a0000000000000000000000000000000000000000000000000000000008152600401612e4a906139aa565b60405180910390fd5b805181602001fd5b63150b7a0260e01b7bffffffffffffffffffffffffffffffffffffffffffffffffffffffff1916817bffffffffffffffffffffffffffffffffffffffffffffffffffffffff191614915050612eb0565b600190505b949350505050565b6000808273ffffffffffffffffffffffffffffffffffffffff163b119050919050565b828054612ee790613fce565b90600052602060002090601f016020900481019282612f095760008555612f50565b82601f10612f2257805160ff1916838001178555612f50565b82800160010185558215612f50579182015b82811115612f4f578251825591602001919060010190612f34565b5b509050612f5d9190612f61565b5090565b5b80821115612f7a576000816000905550600101612f62565b5090565b6000612f91612f8c84613cea565b613cc5565b90508083825260208201905082856020860282011115612fb057600080fd5b60005b85811015612fe05781612fc68882613162565b845260208401935060208301925050600181019050612fb3565b5050509392505050565b6000612ffd612ff884613d16565b613cc5565b90508281526020810184848401111561301557600080fd5b613020848285613f8c565b509392505050565b600061303b61303684613d47565b613cc5565b90508281526020810184848401111561305357600080fd5b61305e848285613f8c565b509392505050565b60008135905061307581614794565b92915050565b600082601f83011261308c57600080fd5b815161309c848260208601612f7e565b91505092915050565b6000813590506130b4816147ab565b92915050565b6000815190506130c9816147ab565b92915050565b6000813590506130de816147c2565b92915050565b6000815190506130f3816147c2565b92915050565b600082601f83011261310a57600080fd5b813561311a848260208601612fea565b91505092915050565b600082601f83011261313457600080fd5b8135613144848260208601613028565b91505092915050565b60008135905061315c816147d9565b92915050565b600081519050613171816147d9565b92915050565b60006020828403121561318957600080fd5b600061319784828501613066565b91505092915050565b600080604083850312156131b357600080fd5b60006131c185828601613066565b92505060206131d285828601613066565b9150509250929050565b6000806000606084860312156131f157600080fd5b60006131ff86828701613066565b935050602061321086828701613066565b92505060406132218682870161314d565b9150509250925092565b6000806000806080858703121561324157600080fd5b600061324f87828801613066565b945050602061326087828801613066565b93505060406132718782880161314d565b925050606085013567ffffffffffffffff81111561328e57600080fd5b61329a878288016130f9565b91505092959194509250565b600080604083850312156132b957600080fd5b60006132c785828601613066565b92505060206132d8858286016130a5565b9150509250929050565b600080604083850312156132f557600080fd5b600061330385828601613066565b92505060206133148582860161314d565b9150509250929050565b60006020828403121561333057600080fd5b600082015167ffffffffffffffff81111561334a57600080fd5b6133568482850161307b565b91505092915050565b60006020828403121561337157600080fd5b600061337f848285016130ba565b91505092915050565b60006020828403121561339a57600080fd5b60006133a8848285016130cf565b91505092915050565b6000602082840312156133c357600080fd5b60006133d1848285016130e4565b91505092915050565b6000602082840312156133ec57600080fd5b600082013567ffffffffffffffff81111561340657600080fd5b61341284828501613123565b91505092915050565b60006020828403121561342d57600080fd5b600061343b8482850161314d565b91505092915050565b61344d81613f0b565b82525050565b61345c81613f1d565b82525050565b600061346d82613d78565b6134778185613d8e565b9350613487818560208601613f9b565b61349081614191565b840191505092915050565b60006134a682613d83565b6134b08185613d9f565b93506134c0818560208601613f9b565b6134c981614191565b840191505092915050565b60006134df82613d83565b6134e98185613db0565b93506134f9818560208601613f9b565b80840191505092915050565b6000613512601883613d9f565b915061351d826141a2565b602082019050919050565b6000613535601083613d9f565b9150613540826141cb565b602082019050919050565b6000613558603283613d9f565b9150613563826141f4565b604082019050919050565b600061357b602683613d9f565b915061358682614243565b604082019050919050565b600061359e602583613d9f565b91506135a982614292565b604082019050919050565b60006135c1601c83613d9f565b91506135cc826142e1565b602082019050919050565b60006135e4601183613d9f565b91506135ef8261430a565b602082019050919050565b6000613607601783613d9f565b915061361282614333565b602082019050919050565b600061362a602483613d9f565b91506136358261435c565b604082019050919050565b600061364d601983613d9f565b9150613658826143ab565b602082019050919050565b6000613670601883613d9f565b915061367b826143d4565b602082019050919050565b6000613693601a83613d9f565b915061369e826143fd565b602082019050919050565b60006136b6601483613d9f565b91506136c182614426565b602082019050919050565b60006136d9602c83613d9f565b91506136e48261444f565b604082019050919050565b60006136fc603883613d9f565b91506137078261449e565b604082019050919050565b600061371f602a83613d9f565b915061372a826144ed565b604082019050919050565b6000613742602983613d9f565b915061374d8261453c565b604082019050919050565b6000613765601e83613d9f565b91506137708261458b565b602082019050919050565b6000613788602083613d9f565b9150613793826145b4565b602082019050919050565b60006137ab602c83613d9f565b91506137b6826145dd565b604082019050919050565b60006137ce601783613d9f565b91506137d98261462c565b602082019050919050565b60006137f1602083613d9f565b91506137fc82614655565b602082019050919050565b6000613814602f83613d9f565b915061381f8261467e565b604082019050919050565b6000613837602183613d9f565b9150613842826146cd565b604082019050919050565b600061385a601283613d9f565b91506138658261471c565b602082019050919050565b600061387d603183613d9f565b915061388882614745565b604082019050919050565b61389c81613f75565b82525050565b60006138ae82856134d4565b91506138ba82846134d4565b91508190509392505050565b60006020820190506138db6000830184613444565b92915050565b60006080820190506138f66000830187613444565b6139036020830186613444565b6139106040830185613893565b81810360608301526139228184613462565b905095945050505050565b60006020820190506139426000830184613453565b92915050565b60006020820190508181036000830152613962818461349b565b905092915050565b6000602082019050818103600083015261398381613505565b9050919050565b600060208201905081810360008301526139a381613528565b9050919050565b600060208201905081810360008301526139c38161354b565b9050919050565b600060208201905081810360008301526139e38161356e565b9050919050565b60006020820190508181036000830152613a0381613591565b9050919050565b60006020820190508181036000830152613a23816135b4565b9050919050565b60006020820190508181036000830152613a43816135d7565b9050919050565b60006020820190508181036000830152613a63816135fa565b9050919050565b60006020820190508181036000830152613a838161361d565b9050919050565b60006020820190508181036000830152613aa381613640565b9050919050565b60006020820190508181036000830152613ac381613663565b9050919050565b60006020820190508181036000830152613ae381613686565b9050919050565b60006020820190508181036000830152613b03816136a9565b9050919050565b60006020820190508181036000830152613b23816136cc565b9050919050565b60006020820190508181036000830152613b43816136ef565b9050919050565b60006020820190508181036000830152613b6381613712565b9050919050565b60006020820190508181036000830152613b8381613735565b9050919050565b60006020820190508181036000830152613ba381613758565b9050919050565b60006020820190508181036000830152613bc38161377b565b9050919050565b60006020820190508181036000830152613be38161379e565b9050919050565b60006020820190508181036000830152613c03816137c1565b9050919050565b60006020820190508181036000830152613c23816137e4565b9050919050565b60006020820190508181036000830152613c4381613807565b9050919050565b60006020820190508181036000830152613c638161382a565b9050919050565b60006020820190508181036000830152613c838161384d565b9050919050565b60006020820190508181036000830152613ca381613870565b9050919050565b6000602082019050613cbf6000830184613893565b92915050565b6000613ccf613ce0565b9050613cdb8282614000565b919050565b6000604051905090565b600067ffffffffffffffff821115613d0557613d04614162565b5b602082029050602081019050919050565b600067ffffffffffffffff821115613d3157613d30614162565b5b613d3a82614191565b9050602081019050919050565b600067ffffffffffffffff821115613d6257613d61614162565b5b613d6b82614191565b9050602081019050919050565b600081519050919050565b600081519050919050565b600082825260208201905092915050565b600082825260208201905092915050565b600081905092915050565b6000613dc682613f75565b9150613dd183613f75565b9250827fffffffffffffffffffffffffffffffffffffffffffffffffffffffffffffffff03821115613e0657613e056140d5565b5b828201905092915050565b6000613e1c82613f75565b9150613e2783613f75565b925082613e3757613e36614104565b5b828204905092915050565b6000613e4d82613f75565b9150613e5883613f75565b9250817fffffffffffffffffffffffffffffffffffffffffffffffffffffffffffffffff0483118215151615613e9157613e906140d5565b5b828202905092915050565b6000613ea782613f7f565b9150613eb283613f7f565b92508160ff0483118215151615613ecc57613ecb6140d5565b5b828202905092915050565b6000613ee282613f75565b9150613eed83613f75565b925082821015613f0057613eff6140d5565b5b828203905092915050565b6000613f1682613f55565b9050919050565b60008115159050919050565b60007fffffffff0000000000000000000000000000000000000000000000000000000082169050919050565b600073ffffffffffffffffffffffffffffffffffffffff82169050919050565b6000819050919050565b600060ff82169050919050565b82818337600083830152505050565b60005b83811015613fb9578082015181840152602081019050613f9e565b83811115613fc8576000848401525b50505050565b60006002820490506001821680613fe657607f821691505b60208210811415613ffa57613ff9614133565b5b50919050565b61400982614191565b810181811067ffffffffffffffff8211171561402857614027614162565b5b80604052505050565b600061403c82613f75565b91507fffffffffffffffffffffffffffffffffffffffffffffffffffffffffffffffff82141561406f5761406e6140d5565b5b600182019050919050565b600061408582613f7f565b915060ff821415614099576140986140d5565b5b600182019050919050565b60006140af82613f75565b91506140ba83613f75565b9250826140ca576140c9614104565b5b828206905092915050565b7f4e487b7100000000000000000000000000000000000000000000000000000000600052601160045260246000fd5b7f4e487b7100000000000000000000000000000000000000000000000000000000600052601260045260246000fd5b7f4e487b7100000000000000000000000000000000000000000000000000000000600052602260045260246000fd5b7f4e487b7100000000000000000000000000000000000000000000000000000000600052604160045260246000fd5b6000601f19601f8301169050919050565b7f596f752068617665206e6f7420476f6c64656e20506173730000000000000000600082015250565b7f4e6f7420656e6f756768206d6f6e657900000000000000000000000000000000600082015250565b7f4552433732313a207472616e7366657220746f206e6f6e20455243373231526560008201527f63656976657220696d706c656d656e7465720000000000000000000000000000602082015250565b7f4f776e61626c653a206e6577206f776e657220697320746865207a65726f206160008201527f6464726573730000000000000000000000000000000000000000000000000000602082015250565b7f4552433732313a207472616e736665722066726f6d20696e636f72726563742060008201527f6f776e6572000000000000000000000000000000000000000000000000000000602082015250565b7f4552433732313a20746f6b656e20616c7265616479206d696e74656400000000600082015250565b7f4578636565647320616c6c6f77616e6365000000000000000000000000000000600082015250565b7f4f472073616c6520686176656e27742073746172746564000000000000000000600082015250565b7f4552433732313a207472616e7366657220746f20746865207a65726f2061646460008201527f7265737300000000000000000000000000000000000000000000000000000000602082015250565b7f4552433732313a20617070726f766520746f2063616c6c657200000000000000600082015250565b7f596f752068617665206e6f742053696c76657220506173730000000000000000600082015250565b7f5075626c696373616c6520686176656e27742073746172746564000000000000600082015250565b7f4578636565647320746f74616c20737570706c79000000000000000000000000600082015250565b7f4552433732313a206f70657261746f7220717565727920666f72206e6f6e657860008201527f697374656e7420746f6b656e0000000000000000000000000000000000000000602082015250565b7f4552433732313a20617070726f76652063616c6c6572206973206e6f74206f7760008201527f6e6572206e6f7220617070726f76656420666f7220616c6c0000000000000000602082015250565b7f4552433732313a2062616c616e636520717565727920666f7220746865207a6560008201527f726f206164647265737300000000000000000000000000000000000000000000602082015250565b7f4552433732313a206f776e657220717565727920666f72206e6f6e657869737460008201527f656e7420746f6b656e0000000000000000000000000000000000000000000000602082015250565b7f596f7520646f6e74206861766520656e6f756768206d696e7420706173730000600082015250565b7f4552433732313a206d696e7420746f20746865207a65726f2061646472657373600082015250565b7f4552433732313a20617070726f76656420717565727920666f72206e6f6e657860008201527f697374656e7420746f6b656e0000000000000000000000000000000000000000602082015250565b7f50726573616c6520686176656e27742073746172746564000000000000000000600082015250565b7f4f776e61626c653a2063616c6c6572206973206e6f7420746865206f776e6572600082015250565b7f4552433732314d657461646174613a2055524920717565727920666f72206e6f60008201527f6e6578697374656e7420746f6b656e0000000000000000000000000000000000602082015250565b7f4552433732313a20617070726f76616c20746f2063757272656e74206f776e6560008201527f7200000000000000000000000000000000000000000000000000000000000000602082015250565b7f4e6f7420616c6c6f776564206f726967696e0000000000000000000000000000600082015250565b7f4552433732313a207472616e736665722063616c6c6572206973206e6f74206f60008201527f776e6572206e6f7220617070726f766564000000000000000000000000000000602082015250565b61479d81613f0b565b81146147a857600080fd5b50565b6147b481613f1d565b81146147bf57600080fd5b50565b6147cb81613f29565b81146147d657600080fd5b50565b6147e281613f75565b81146147ed57600080fd5b5056fea264697066735822122007bba40772cb640543f49c9f53203af2de2b3c28ea75bd9944f2b93e95f12d7d64736f6c63430008040033",
  "linkReferences": {},
  "deployedLinkReferences": {}
}